:020000040800F2
:1000000000000220A50D0008AD0C0008B30C00088C
:10001000B90C0008BF0C0008C50C00080000000067
:10002000000000000000000000000000CB0C0008F1
:10003000D90C000800000000E70C0008F50C0008CF
:10004000F50D0008F50D0008F50D0008F50D000888
:10005000F50D0008F50D0008F50D0008F50D000878
:10006000F50D0008F50D0008F50D0008F50D000868
:10007000F50D0008F50D0008F50D0008F50D000858
:10008000F50D0008F50D0008F50D00080000000052
:10009000000000000000000000000000F50D000856
:1000A000F50D0008F50D0008F50D0008F50D000828
:1000B000F50D0008F50D0008F50D0008F50D000818
:1000C000F50D0008F50D0008F50D0008F50D000808
:1000D000F50D0008F50D0008F50D00080000000002
:1000E000F50D0008F50D0008F50D000800000000F2
:1000F000000000000000000000000000F50D0008F6
:1001000000000000F50D0008F50D0008F50D0008D1
:1001100000000000000000000000000000000000DF
:10012000F50D0008F50D0008F50D0008F50D0008A7
:10013000F50D0008000000000000000000000000B5
:10014000000000000000000000000000010D000899
:10015000F50D0008F50D0008F50D0008F50D000877
:10016000F50D0008F50D000800000000000000007B
:10017000000000000000000000000000000000007F
:1001800000000000F50D0008000000000000000065
:08019000F50D0008F50D000853
:1001980010B5054C237833B9044B13B10448AFF3B9
:1001A80000800123237010BD900000200000000093
:1001B800807D000808B5034B1BB103490348AFF322
:1001C800008008BD0000000094000020807D000829
:1001D80080B500AF00F00CFE00F032F800F098F89F
:1001E80000F078F900F0B4F800F0E0F800F00CF94D
:1001F80000F03AF907F078F907F09CF901224FF47A
:1002080000410D4801F038F901210C4801F01CF9B2
:100218000346002B09D1462000F05CFE01224FF472
:100228008051054801F028F9E6E700224FF4805193
:10023800014801F021F9DFE7000C0240000002400C
:1002480080B594B000AF07F1200330220021184692
:1002580007F08CFC07F10C0300221A605A609A60C0
:10026800DA601A610023BB60274B1B6C264A43F0F7
:1002780080531364244B1B6C03F08053BB60BB6832
:1002880000237B60214B1B68204A43F440431360E2
:100298001E4B1B6803F440437B607B6801233B6271
:1002A8004FF480337B620223BB634FF48003FB630C
:1002B80004233B64C0237B640423BB640823FB64DE
:1002C80007F12003184603F0DFFA0346002B01D09C
:1002D80000F0DAF90F23FB6002233B6100237B6106
:1002E8004FF4A053BB610023FB6107F10C0303210A
:1002F800184603F041FD0346002B01D000F0C4F975
:1003080000BF5037BD4680BD003802400070004035
:1003180080B586B000AF3B4600221A605A609A60EA
:10032800DA601A615A6101233B60C823BB60052368
:100338007B600223FB603B46184603F029FF034617
:10034800002B01D000F0A0F900BF1837BD4680BDD2
:1003580080B500AF124B134A1A60114B124A5A600B
:100368000F4B00229A600E4B0022DA600C4B4FF4C0
:1003780080421A610A4B00225A61094B00229A6195
:10038800074B0022DA61064B00221A62044802F089
:1003980097FC0346002B01D000F076F900BF80BD22
:1003A800AC00002000540040A086010080B500AFDA
:1003B800124B134A1A60114B4FF400725A600F4BDC
:1003C80000229A600D4B0022DA600C4B00221A6161
:1003D8000A4B0C4A5A61094B00229A61074B0022CA
:1003E800DA61064B01221A62044802F0ADFD0346A9
:1003F800002B01D000F048F900BF80BD00010020AB
:10040800003800400077010080B500AF134B144A54
:100418001A60124B4FF400725A60104B00229A6017
:100428000E4B0022DA600D4B4FF400721A610B4B31
:100438000C4A5A61094B00229A61084B0022DA6182
:10044800064B00221A62054802F07EFD0346002B87
:1004580001D000F019F900BF80BD00BF480100209D
:10046800003C00400077010080B500AF174B184AE8
:100478001A60164B4FF482725A60144B00229A602D
:10048800124B0022DA60114B00221A610F4B002236
:100498005A610E4B4FF400729A610C4B0022DA61DC
:1004A8000A4B00221A62094B00225A62074B0022AB
:1004B8009A62064B0A22DA62044803F0B9FF03463F
:1004C800002B01D000F0E0F800BF80BD90010020B3
:1004D8000030014080B58CB000AF07F11C0300224A
:1004E8001A605A609A60DA601A610023BB61614B36
:1004F8001B6B604A43F0100313635E4B1B6B03F0E6
:100508001003BB61BB6900237B615A4B1B6B594AC3
:1005180043F004031363574B1B6B03F004037B6125
:100528007B6900233B61534B1B6B524A43F08003AA
:100538001363504B1B6B03F080033B613B69002343
:10054800FB604C4B1B6B4B4A43F001031363494B55
:100558001B6B03F00103FB60FB680023BB60454B8A
:100568001B6B444A43F002031363424B1B6B03F0BB
:100578000203BB60BB6800237B603E4B1B6B3D4A9C
:1005880043F0080313633B4B1B6B03F008037B60CA
:100598007B6800220821384800F06EFF0122012103
:1005A800364800F069FF00224FF21001344800F08D
:1005B80063FF0423FB6100233B6200237B6207F196
:1005C8001C0319462C4800F0BBFD0823FB610123DE
:1005D8003B6200237B620023BB6207F11C031946C0
:1005E800254800F0ADFD3223FB614FF490133B62C8
:1005F80000237B6207F11C0319461F4800F0A0FD89
:100608000123FB6101233B6200237B620023BB6261
:1006180007F11C031946194800F092FD0123FB61FC
:100628004FF490133B6200237B6207F11C031946C9
:10063800144800F085FD4FF21003FB6101233B6273
:1006480000237B620023BB6207F11C0319460C4898
:1006580000F076FD2023FB6100233B6200237B62D0
:1006680007F11C031946064800F06AFD00BF303741
:10067800BD4680BD0038024000100240000802401C
:10068800000C02400000024080B400AF72B600BF08
:10069800FEE700BF53B94AB9002908BF00281CBFAC
:1006A8004FF0FF314FF0FF3000F074B9ADF1080C96
:1006B8006DE904CE00F006F8DDF804E0DDE9022378
:1006C80004B070472DE9F047089D04468E46002B7C
:1006D8004DD18A42944669D9B2FA82F252B101FAEE
:1006E80002F3C2F1200120FA01F10CFA02FC41EAFE
:1006F800030E94404FEA1C48210CBEFBF8F61FFA83
:100708008CF708FB16E341EA034306FB07F199421D
:100718000AD91CEB030306F1FF3080F01F819942D0
:1007280040F21C81023E63445B1AA4B2B3FBF8F0AA
:1007380008FB103344EA034400FB07F7A7420AD931
:100748001CEB040400F1FF3380F00A81A74240F259
:1007580007816444023840EA0640E41B00261DB1C4
:10076800D4400023C5E900433146BDE8F0878B42F9
:1007780009D9002D00F0EF800026C5E900013046B8
:100788003146BDE8F087B3FA83F6002E4AD18B4292
:1007980002D3824200F2F980841A61EB030301203C
:1007A8009E46002DE0D0C5E9004EDDE702B9FFDE28
:1007B800B2FA82F2002A40F09280A1EB0C014FEAD3
:1007C8001C471FFA8CFE0126200CB1FBF7F307FB30
:1007D800131140EA01410EFB03F0884208D91CEBD3
:1007E800010103F1FF3802D2884200F2CB80434670
:1007F800091AA4B2B1FBF7F007FB101144EA01444F
:100808000EFB00FEA64508D91CEB040400F1FF31DD
:1008180002D2A64500F2BB800846A4EB0E0440EACB
:1008280003409CE7C6F12007B34022FA07FC4CEAD4
:10083800030C20FA07F401FA06F31C43F9404FEAC7
:100848001C4900FA06F3B1FBF9F8200C1FFA8CFEDC
:1008580009FB181140EA014108FB0EF0884202FA30
:1008680006F20BD91CEB010108F1FF3A80F08880F1
:10087800884240F28580A8F102086144091AA4B2AE
:10088800B1FBF9F009FB101144EA014100FB0EFE2F
:100898008E4508D91CEB010100F1FF346CD28E455E
:1008A8006AD90238614440EA0840A0FB0294A1EBEF
:1008B8000E01A142C846A64656D353D05DB1B3EB4C
:1008C800080261EB0E0101FA07F722FA06F3F1407C
:1008D8001F43C5E9007100263146BDE8F087C2F123
:1008E8002003D8400CFA02FC21FA03F3914001439B
:1008F8004FEA1C471FFA8CFEB3FBF7F007FB1036D4
:100908000B0C43EA064300FB0EF69E4204FA02F47F
:1009180008D91CEB030300F1FF382FD29E422DD9D2
:10092800023863449B1B89B2B3FBF7F607FB163307
:1009380041EA034106FB0EF38B4208D91CEB010187
:1009480006F1FF3816D28B4214D9023E6144C91A07
:1009580046EA004638E72E46284605E70646E3E617
:100968001846F8E64B45A9D2B9EB020864EB0C0E21
:100978000138A3E74646EAE7204694E74046D1E730
:10098800D0467BE7023B614432E7304609E76444DE
:10099800023842E7704700BF80B582B000AF00233D
:1009A8007B60104B5B6C0F4A43F4804353640D4BE0
:1009B8005B6C03F480437B607B6800233B60094BDE
:1009C8001B6C084A43F080531364064B1B6C03F0FE
:1009D80080533B603B68072000F070FB00BF08377E
:1009E800BD4680BD0038024080B58AB000AF78604F
:1009F80007F1140300221A605A609A60DA601A61DB
:100A08007B681B68194A93422CD100233B61184B21
:100A18001B6B174A43F002031363154B1B6B03F060
:100A280002033B613B694FF410737B611223BB6186
:100A38000123FB6100233B6204237B6207F114035B
:100A480019460C4800F07CFB0023FB60084B1B6C2C
:100A5800074A43F400131364054B1B6C03F400139B
:100A6800FB60FB6800BF2837BD4680BD00540040CE
:100A7800003802400004024080B58EB000AF7860B4
:100A880007F1240300221A605A609A60DA601A613A
:100A98007B681B68594A93425BD100233B62584BE1
:100AA8001B6C574A43F480431364554B1B6C03F487
:100AB80080433B623B6A0023FB61514B1B6B504AEE
:100AC80043F0040313634E4B1B6B03F00403FB61F9
:100AD800FB690023BB614A4B1B6B494A43F0020385
:100AE8001363474B1B6B03F00203BB61BB69042311
:100AF8007B620223BB620023FB6200233B63062365
:100B08007B6307F1240319463E4800F019FB0823CC
:100B18007B620223BB620023FB6200233B63052345
:100B28007B6307F124031946364800F009FB4FF4AC
:100B3800A0537B620223BB620023FB6200233B635A
:100B480005237B6307F1240319462F4800F0F8FAC0
:100B58004FE07B681B682D4A93424AD100237B6192
:100B6800274B1B6C264A43F400431364244B1B6C2D
:100B780003F400437B617B6900233B61204B1B6BC3
:100B88001F4A43F0010313631D4B1B6B03F0010362
:100B98003B613B690023FB60194B1B6B184A43F010
:100BA80004031363164B1B6B03F00403FB60FB6821
:100BB80010237B620223BB620023FB6200233B639A
:100BC80006237B6307F124031946114800F0B8FA9D
:100BD8004FF4A4537B620223BB620023FB62002311
:100BE8003B6306237B6307F124031946054800F09D
:100BF800A7FA00BF3837BD4680BD00BF00380040A7
:100C0800003802400008024000040240003C004056
:100C18000000024080B58AB000AF786007F1140385
:100C280000221A605A609A60DA601A617B681B6851
:100C3800194A93422BD100233B61184B5B6C174A2E
:100C480043F480535364154B5B6C03F480533B614E
:100C58003B690023FB60114B1B6B104A43F00103F7
:100C680013630E4B1B6B03F00103FB60FB68E0236F
:100C78007B610223BB610023FB6103233B620523E5
:100C88007B6207F114031946054800F059FA00BFC2
:100C98002837BD4680BD00BF003001400038024003
:100CA8000000024080B400AFFEE780B400AFFEE76A
:100CB80080B400AFFEE780B400AFFEE780B400AFB9
:100CC800FEE780B400AF00BFBD465DF8047B704707
:100CD80080B400AF00BFBD465DF8047B704780B4A8
:100CE80000AF00BFBD465DF8047B704780B500AF1C
:100CF80000F0D0F800BF80BD80B500AF024800F01A
:100D08003FFE00BF80BD00BFCC05002080B586B087
:100D180000AF7860144A154BD31A7B617B693B613D
:100D2800134B1B68002B02D1114B124A1A60104B4F
:100D38001A687B6813443A699A4207D206F0DCFEC7
:100D480003460C221A604FF0FF3309E0084B1B687A
:100D5800FB60074B1A687B681344054A1360FB68FD
:100D680018461837BD4680BD000002200004000068
:100D7800E8010020E008002080B400AF064BD3F85B
:100D88008830054A43F47003C2F8883000BFBD4676
:100D98005DF8047B704700BF00ED00E0DFF834D059
:100DA8000D480E490E4A002302E0D458C4500433BB
:100DB800C4188C42F9D30B4A0B4C002301E0136092
:100DC8000432A242FBD3FFF7D7FF06F09BFEFFF7E2
:100DD800FFF970470000022000000020900000206A
:100DE800C47D000890000020E0080020FEE7000015
:100DF80080B500AF0E4B1B680D4A43F400731360B7
:100E08000B4B1B680A4A43F480631360084B1B684A
:100E1800074A43F480731360032000F04FF9002061
:100E280000F008F8FFF7B8FD0023184680BD00BFA2
:100E3800003C024080B582B000AF7860124B1A685F
:100E4800124B1B7819464FF47A73B3FBF1F3B2FBDC
:100E5800F3F3184600F067F90346002B01D001238D
:100E68000EE07B680F2B0AD8002279684FF0FF301C
:100E780000F02FF9064A7B681360002300E0012385
:100E880018460837BD4680BD000000200800002035
:100E98000400002080B400AF064B1B781A46064BAE
:100EA8001B681344044A136000BFBD465DF8047B09
:100EB800704700BF08000020EC01002080B400AF9C
:100EC800034B1B681846BD465DF8047B704700BF9E
:100ED800EC01002080B584B000AF7860FFF7EEFF2A
:100EE800B8607B68FB60FB68B3F1FF3F05D00A4B35
:100EF8001B781A46FB681344FB6000BFFFF7DEFF50
:100F08000246BB68D31AFA689A42F7D800BF00BFF6
:100F18001037BD4680BD00BF0800002080B485B0F2
:100F280000AF78607B6803F00703FB600C4BDB685D
:100F3800BB60BA684FF6FF031340BB60FB681A0238
:100F4800BB68134343F0BF6343F40033BB60044AF8
:100F5800BB68D36000BF1437BD465DF8047B70479B
:100F680000ED00E080B400AF044BDB681B0A03F01F
:100F780007031846BD465DF8047B704700ED00E0A6
:100F880080B483B000AF0346FB7197F90730002B9C
:100F98000BDBFB7903F01F02074997F907305B0960
:100FA800012000FA02F241F8232000BF0C37BD46A9
:100FB8005DF8047B704700BF00E100E080B483B0B7
:100FC80000AF03463960FB7197F90730002B0ADB45
:100FD8003B68DAB20C4997F907301201D2B20B44D8
:100FE80083F800230AE03B68DAB20849FB7903F08A
:100FF8000F03043B1201D2B20B441A7600BF0C3720
:10100800BD465DF8047B704700E100E000ED00E0BC
:1010180080B489B000AFF860B9607A60FB6803F00B
:101028000703FB61FB69C3F10703042B28BF0423F3
:10103800BB61FB690433062B02D9FB69033B00E063
:1010480000237B614FF0FF32BB6902FA03F3DA43F6
:10105800BB681A407B699A404FF0FF317B6901FAFF
:1010680003F3D9437B680B40134318462437BD4626
:101078005DF8047B7047000080B582B000AF7860EF
:101088007B68013BB3F1807F01D301230FE00A4A5B
:101098007B68013B53600F214FF0FF30FFF78EFF55
:1010A800054B00229A60044B07221A600023184659
:1010B8000837BD4680BD00BF10E000E080B582B0B3
:1010C80000AF78607868FFF729FF00BF0837BD4692
:1010D80080BD80B586B000AF0346B9607A60FB7307
:1010E80000237B61FFF73EFF78617A68B968786909
:1010F800FFF78EFF024697F90F3011461846FFF7A3
:101108005DFF00BF1837BD4680BD80B582B000AF17
:101118000346FB7197F907301846FFF731FF00BF08
:101128000837BD4680BD80B582B000AF786078686A
:10113800FFF7A2FF034618460837BD4680BD0000EA
:1011480080B489B000AF7860396000237B610023E8
:101158003B610023BB610023FB6159E10122FB696C
:1011680002FA03F37B613B681B687A6913403B61B1
:101178003A697B699A4240F048813B685B6803F0B2
:101188000303012B05D03B685B6803F00303022BC4
:1011980030D17B689B68BB61FB695B00032202FA64
:1011A80003F3DB43BA691340BB613B68DA68FB6948
:1011B8005B0002FA03F3BA691343BB617B68BA693F
:1011C8009A607B685B68BB610122FB6902FA03F3E2
:1011D800DB43BA691340BB613B685B681B0903F0DA
:1011E8000102FB6902FA03F3BA691343BB617B6826
:1011F800BA695A603B685B6803F00303032B17D096
:101208007B68DB68BB61FB695B00032202FA03F3BE
:10121800DB43BA691340BB613B689A68FB695B00B2
:1012280002FA03F3BA691343BB617B68BA69DA60EF
:101238003B685B6803F00303022B23D1FB69DA08E0
:101248007B68083253F82230BB61FB6903F007035F
:101258009B000F2202FA03F3DB43BA691340BB6118
:101268003B681A69FB6903F007039B0002FA03F362
:10127800BA691343BB61FB69DA087B680832B9694C
:1012880043F822107B681B68BB61FB695B00032283
:1012980002FA03F3DB43BA691340BB613B685B683E
:1012A80003F00302FB695B0002FA03F3BA69134314
:1012B800BB617B68BA691A603B685B6803F44033BA
:1012C800002B00F0A2800023FB60574B5B6C564A52
:1012D80043F480435364544B5B6C03F48043FB60DA
:1012E800FB68524AFB699B08023352F82330BB6102
:1012F800FB6903F003039B000F2202FA03F3DB43AD
:10130800BA691340BB617B68494A934219D07B682C
:10131800484A934213D07B68474A93420DD07B6872
:10132800464A934207D07B68454A934201D1042339
:1013380008E0072306E0032304E0022302E0012378
:1013480000E00023FA6902F0030292009340BA69B0
:101358001343BB613549FB699B080233BA6941F8FD
:101368002320384B9B68BB613B69DB43BA69134058
:10137800BB613B685B6803F48013002B03D0BA6938
:101388003B691343BB612F4ABB6993602D4BDB68F4
:10139800BB613B69DB43BA691340BB613B685B686F
:1013A80003F40013002B03D0BA693B691343BB61F4
:1013B800244ABB69D360234B5B68BB613B69DB4351
:1013C800BA691340BB613B685B6803F40033002BC8
:1013D80003D0BA693B691343BB611A4ABB695360BE
:1013E800184B1B68BB613B69DB43BA691340BB619F
:1013F8003B685B6803F48033002B03D0BA693B6910
:101408001343BB610F4ABB691360FB690133FB617E
:10141800FB690F2B7FF6A2AE00BF00BF2437BD4685
:101428005DF8047B704700BF003802400038014077
:10143800000002400004024000080240000C024084
:1014480000100240003C014080B485B000AF7860D5
:101458000B467B807B681A697B881340002B02D07F
:101468000123FB7301E00023FB73FB7B1846143751
:10147800BD465DF8047B704780B483B000AF7860E8
:101488000B467B8013467B707B78002B03D07A88D1
:101498007B689A6103E07B881A047B689A6100BFC5
:1014A8000C37BD465DF8047B7047F0B58FB00AAFC6
:1014B80078607B68002B01D1012354E07B681B68AE
:1014C800FB607B6893F8F932DBB2002B06D17B68AE
:1014D800002283F8F822786806F064F87B68032213
:1014E80083F8F922FB68DB6B03F48073002B02D1CD
:1014F8007B6800221A617B681B68184603F093F822
:101508007B681B683B607E686D4606F110040FCC53
:101518000FC50FCC0FC594E8030085E80300331D01
:101528000ECB386803F00DF87B681B68012118465C
:1015380003F08AF87B681B683B607E686D4606F19D
:1015480010040FCC0FC50FCC0FC594E8030085E835
:101558000300331D0ECB386803F012FA7B680122B2
:1015680083F8F922002318461437BD46F0BD90B51C
:1015780089B004AF7860084611461A460346FB70E6
:101588000B46BB7013467B707B6893F8F832012BCF
:1015980001D1022376E07B68012283F8F822FB78E8
:1015A8007A682C2101FB03F313443D3300221A709F
:1015B800FB787A682C2101FB03F3134438337A78DB
:1015C8001A70FB787A682C2101FB03F3134440332B
:1015D8003A8D1A80FB787A682C2101FB03F31344B7
:1015E8003933FA781A70FB787A682C2101FB03F3F7
:1015F80013443F3397F824201A70FB78BA7802F026
:101608007F02D0B27A682C2101FB03F313443A33EA
:1016180002461A7097F90230002B09DAFB787A68CB
:101628002C2101FB03F313443B3301221A7008E019
:10163800FB787A682C2101FB03F313443B33002227
:101648001A70FB787A682C2101FB03F313443C33AE
:1016580097F820201A707B6818687C78BA78F9782F
:101668003B8D029397F82430019397F8203000932C
:10167800234603F00BFB0346FB737B68002283F8C9
:10168800F822FB7B18461437BD4690BD80B584B060
:1016980000AF78600B46FB700023FB737B6893F800
:1016A800F832012B01D102230FE07B68012283F875
:1016B800F8227B681B68FA781146184603F05BFD30
:1016C8007B68002283F8F822FB7B18461037BD465A
:1016D80080BD000080B582B000AF78600846114632
:1016E8001A460346FB700B46BB7013467B70FB78AB
:1016F8007A682C2101FB03F313443B33BA781A7040
:10170800FB787A682C2101FB03F313443F337A7882
:101718001A703B7C002B12D1FB787A682C2101FBD4
:1017280003F31344423303221A70FB787A682C219E
:1017380001FB03F313443D333A7F1A7008E0FB784A
:101748007A682C2101FB03F31344423302221A70F6
:101758007B78032B00F2C68001A252F823F000BF69
:1017680079170008D9180008DD1700085B18000869
:101778003B7C012B40F0B880BB78002B40F0B48054
:101788003B8B002B08D1FB787A682C2101FB03F3F3
:101798001344553301221A70FB787A682C2101FB17
:1017A80003F3134455331B78002B09D1FB787A686F
:1017B8002C2101FB03F31344423300221A7093E0F7
:1017C800FB787A682C2101FB03F31344423302228D
:1017D8001A7089E0BB78002B1DD1FB787A682C2120
:1017E80001FB03F3134455331B78002B09D1FB7815
:1017F8007A682C2101FB03F31344423300221A7048
:1018080073E0FB787A682C2101FB03F3134442331D
:1018180002221A7069E0FB787A682C2101FB03F335
:10182800134454331B78002B09D1FB787A682C2198
:1018380001FB03F31344423300221A7055E0FB788E
:101848007A682C2101FB03F31344423302221A70F5
:101858004BE0BB78002B1DD1FB787A682C2101FB6B
:1018680003F3134455331B78002B09D1FB787A68AE
:101878002C2101FB03F31344423300221A7034E095
:10188800FB787A682C2101FB03F3134442330222CC
:101898001A702AE0FB787A682C2101FB03F31344C1
:1018A80054331B78002B09D1FB787A682C2101FB73
:1018B80003F31344423300221A7016E0FB787A6867
:1018C8002C2101FB03F31344423302221A700CE06B
:1018D800FB787A682C2101FB03F31344423300227E
:1018E8001A7002E000BF00E000BFFB787A682C2184
:1018F80001FB03F3134444337A691A60FB783A8B8B
:1019080079682C2000FB03F30B444C331A60FB78F6
:101918007A682C2101FB03F31344603300221A7008
:10192800FB787A682C2101FB03F31344503300221F
:101938001A60FB787A682C2101FB03F313443933CE
:10194800FA781A70FB787A682C2101FB03F31344A8
:10195800613300221A707B681868FB782C2202FB1E
:1019680003F338337A68D1187B681B69DBB21A46EF
:1019780003F0AEFA034618460837BD4680BD00BFDF
:1019880080B586B000AF78607B681B683B613B69B7
:10199800FB607B681B68184602F0AFFF0346012B0B
:1019A80040F0F6807B681B68184602F093FF0346F8
:1019B800002B00F0EC807B681B68184602F08AFF59
:1019C800034603F40013B3F5001F04D17B681B68BA
:1019D8004FF400125A617B681B68184602F07AFFC0
:1019E800034603F48013B3F5801F04D17B681B689A
:1019F8004FF480125A617B681B68184602F06AFF30
:101A0800034603F08063B3F1806F04D17B681B68E1
:101A18004FF080625A617B681B68184602F05AFFD3
:101A2800034603F00203022B03D17B681B680222E2
:101A38005A617B681B68184602F04CFF034603F0A6
:101A48000053B3F1005F1CD17B681B684FF0005254
:101A58005A61FB6803F588631B6803F00103002BD8
:101A68000FD11021386902F03BFE386902F06CFE94
:101A78007B681B680121184603F042F8786805F076
:101A88000FFE7B681B68184602F024FF034603F02C
:101A98008073B3F1807F02D1786801F09EF87B688B
:101AA8001B68184602F016FF034603F00803082BCC
:101AB80006D1786805F0D8FD7B681B6808225A6152
:101AC8007B681B68184602F005FF034603F0100305
:101AD800102B01D1012300E00023002B12D07B68DA
:101AE8001B689A697B681B6822F010029A61786803
:101AF80000F0A1FF7B681B689A697B681B6842F04D
:101B080010029A617B681B68184602F0E3FE0346E0
:101B180003F00073B3F1007F3AD17B681B68184665
:101B280003F018FBB86000237B6125E07B6903F0B4
:101B38000F03BA6822FA03F303F00103002B18D04D
:101B48007B695A01FB68134403F5A0631B6803F41F
:101B58000043B3F5004F06D17B69DBB219467868BC
:101B680000F0ABF805E07B69DBB21946786800F055
:101B7800F9FB7B6901337B617B689B687A699A42D0
:101B8800D4D37B681B684FF000725A6100E000BF35
:101B98001837BD4680BD80B582B000AF78607B68DD
:101BA80093F8F832012B01D1022313E07B6801225C
:101BB80083F8F8227B681B680121184603F004F8B3
:101BC8007B681B68184602F01DFD7B68002283F8BD
:101BD800F822002318460837BD4680BD80B582B07C
:101BE80000AF78607B6893F8F832012B01D10223AB
:101BF8000DE07B68012283F8F8227B681B68184691
:101C080003F0F2FB7B68002283F8F82200231846D1
:101C18000837BD4680BD80B582B000AF78607B686C
:101C28001B68184602F0A6FF034618460837BD464B
:101C380080BD80B483B000AF78600B46FB70FB7842
:101C48007A682C2101FB03F3134460331B78184690
:101C58000C37BD465DF8047B704780B483B000AF95
:101C680078600B46FB70FB787A682C2101FB03F344
:101C7800134450331B6818460C37BD465DF8047B87
:101C8800704780B582B000AF78607B681B681846E3
:101C980002F0EAFF034618460837BD4680BD80B506
:101CA80082B000AF78607B681B68184602F0C5FFF9
:101CB800034618460837BD4680BD80B586B000AFDC
:101CC80078600B46FB707B681B687B617B693B61B6
:101CD800FB78FB60FB685A013B69134403F5A0637A
:101CE8009B6803F00403042B1AD1FB685A013B6973
:101CF800134403F5A0631A46042393607A68FB68CB
:101D08002C2101FB03F31344613306221A707B680C
:101D18001B68FA68D2B21146184603F02CFAAFE0F5
:101D2800FB685A013B69134403F5A0639B6803F4FD
:101D38008073B3F5807F1BD1FB685A013B6913445C
:101D480003F5A0631A464FF4807393607A68FB68C2
:101D58002C2101FB03F31344613307221A707B68BB
:101D68001B68FA68D2B21146184603F004FA87E0F5
:101D7800FB685A013B69134403F5A0639B6803F0B1
:101D88002003202B09D1FB685A013B69134403F552
:101D9800A0631A462023936072E0FB685A013B69EE
:101DA800134403F5A0639B6803F00803082B1AD1BA
:101DB800FB685A013B69134403F5A0631A460823DC
:101DC80093607A68FB682C2101FB03F313446133A9
:101DD80005221A707B681B68FA68D2B21146184649
:101DE80003F0C9F94CE0FB685A013B69134403F559
:101DF800A0639B6803F48063B3F5806F1BD1FB6815
:101E08005A013B69134403F5A0631A464FF48063F3
:101E180093607A68FB682C2101FB03F31344613358
:101E280008221A707B681B68FA68D2B211461846F5
:101E380003F0A1F924E0FB685A013B69134403F558
:101E4800A0639B6803F08003802B19D1FB685A01BB
:101E58003B69134403F5A0631A46802393607A68AC
:101E6800FB682C2101FB03F31344613306221A702B
:101E78007B681B68FA68D2B21146184603F07BF9F2
:101E8800FB685A013B69134403F5A0639B6803F49C
:101E98000073B3F5007F12D17B681B68FA68D2B271
:101EA8001146184603F067F9FB685A013B69134469
:101EB80003F5A0631A464FF4007393604EE2FB6883
:101EC8005A013B69134403F5A0639B6803F00103BF
:101ED800012B40F0DF807B681B69002B19D07A68E2
:101EE800FB682C2101FB03F3134448331A68FB6891
:101EF80059013B690B4403F5A0631B69C3F3120343
:101F0800D21A7968FB682C2000FB03F30B4450338A
:101F18001A607A68FB682C2101FB03F313446133D0
:101F280001221A707A68FB682C2101FB03F3134421
:101F38005C3300221A60FB685A013B69134403F5BD
:101F4800A0631A46012393607A68FB682C2101FB81
:101F580003F313443F331B78002B09D07A68FB68DE
:101F68002C2101FB03F313443F331B78022B11D1BF
:101F78007B681B68FA68D2B21146184603F0FBF872
:101F8800FB685A013B69134403F5A0631A46102302
:101F980093603AE07A68FB682C2101FB03F3134451
:101FA8003F331B78032B09D07A68FB682C2101FB8F
:101FB80003F313443F331B78012B26D1FB685A01E6
:101FC8003B69134403F5A0631B68FA6851013A6939
:101FD8000A4402F5A06243F0005313607A68FB6874
:101FE8002C2101FB03F31344603301221A70FB68B0
:101FF800D9B27A68FB682C2000FB03F313446033E2
:102008001B781A46786805F059FB7B681B69012B19
:102018002BD17A68FB682C2101FB03F31344483366
:102028001B687968FA682C2000FB02F20A444032E7
:102038001288B3FBF2F303F00103002B00F08E814A
:102048007A68FB682C2101FB03F3134454331B7893
:1020580083F00103D8B27A68FB682C2101FB03F3F3
:102068001344543302461A7078E17A68FB682C21CD
:1020780001FB03F3134454331B7883F00103D8B2F4
:102088007A68FB682C2101FB03F31344543302469E
:102098001A7063E1FB685A013B69134403F5A063B6
:1020A8009B6803F00203022B40F0F6807A68FB6815
:1020B8002C2101FB03F3134461331B78012B09D155
:1020C8007A68FB682C2101FB03F313446033012277
:1020D8001A70C9E07A68FB682C2101FB03F31344EA
:1020E80061331B78052B09D17A68FB682C2101FB29
:1020F80003F31344603305221A70B5E07A68FB686D
:102108002C2101FB03F3134461331B78062B09D000
:102118007A68FB682C2101FB03F3134461331B78B5
:10212800082B50D17A68FB682C2101FB03F3134478
:102138005C331B685A1C7968FB682C2000FB03F38E
:102148000B445C331A607A68FB682C2101FB03F3AB
:1021580013445C331B68022B12D97A68FB682C2164
:1021680001FB03F313445C3300221A607A68FB68AE
:102178002C2101FB03F31344603304221A7073E02B
:102188007A68FB682C2101FB03F3134460330222B5
:102198001A70FB685A013B69134403F5A0631B6876
:1021A800BB60BB6823F08043BB60BB6843F000435F
:1021B800BB60FB685A013B69134403F5A0631A46E8
:1021C800BB68136050E07A68FB682C2101FB03F3BD
:1021D800134461331B78032B22D17A68FB682C21C6
:1021E80001FB03F31344603302221A70FB685A019F
:1021F8003B69134403F5A0631B68BB60BB6823F00D
:102208008043BB60BB6843F00043BB60FB685A0176
:102218003B69134403F5A0631A46BB68136023E0C7
:102228007A68FB682C2101FB03F3134461331B78A4
:10223800072B19D17A68FB682C2101FB03F313449F
:102248005C331B685A1C7968FB682C2000FB03F37D
:102258000B445C331A607A68FB682C2101FB03F39A
:102268001344603304221A70FB685A013B69134413
:1022780003F5A0631A4602239360FB68D9B27A6813
:10228800FB682C2000FB03F3134460331B781A46C9
:10229800786805F013FA61E0FB685A013B6913445A
:1022A80003F5A0639B6803F01003102B56D17A68DE
:1022B800FB682C2101FB03F313443F331B78032BEA
:1022C80011D17A68FB682C2101FB03F313445C33BA
:1022D80000221A607B681B68FA68D2B21146184659
:1022E80002F049FF31E07A68FB682C2101FB03F317
:1022F80013443F331B78002B09D07A68FB682C21E4
:1023080001FB03F313443F331B78022B1DD17A687A
:10231800FB682C2101FB03F313445C3300221A6091
:102328007B681B69002B10D17A68FB682C2101FBA4
:1023380003F31344613303221A707B681B68FA683D
:10234800D2B21146184602F016FFFB685A013B69E3
:10235800134403F5A0631A461023936000BF18378F
:10236800BD4680BD80B588B000AF78600B46FB7075
:102378007B681B68FB61FB69BB61FB787B617B69E0
:102388005A01BB69134403F5A0639B6803F0040377
:10239800042B1AD17B695A01BB69134403F5A06366
:1023A8001A46042393607A687B692C2101FB03F3A6
:1023B8001344613306221A707B681B687A69D2B2AB
:1023C8001146184602F0D7FE31E37B695A01BB6912
:1023D800134403F5A0639B6803F02003202B2ED140
:1023E8007B695A01BB69134403F5A0631A4620238D
:1023F80093607A687B692C2101FB03F313443D3316
:102408001B78012B40F013837A687B692C2101FB30
:1024180003F313443D3300221A707A687B692C2138
:1024280001FB03F31344603302221A707B681B68B4
:102438007A69D2B21146184602F09DFEF7E27B692E
:102448005A01BB69134403F5A0639B6803F4007346
:10245800B3F5007F12D17B695A01BB69134403F5B8
:10246800A0631A464FF4007393607B681B687A690F
:10247800D2B21146184602F07EFED8E27B695A01B4
:10248800BB69134403F5A0639B6803F00103012BA8
:1024980040D17A687B692C2101FB03F313445C3338
:1024A80000221A607B695A01BB69134403F5A063D3
:1024B8009B6803F04003402B11D17A687B692C217B
:1024C80001FB03F313443D3301221A707B695A015F
:1024D800BB69134403F5A0631A46402393607B69E4
:1024E8005A01BB69134403F5A0631A46012393609C
:1024F8007A687B692C2101FB03F3134461330122C1
:102508001A707B681B687A69D2B21146184602F0C5
:1025180032FE8CE27B695A01BB69134403F5A06360
:102528009B6803F04003402B2CD17A687B692C21EF
:1025380001FB03F31344613304221A707A687B6940
:102548002C2101FB03F313443D3301221A707A68EE
:102558007B692C2101FB03F313445C3300221A60CE
:102568007B681B687A69D2B21146184602F003FEEE
:102578007B695A01BB69134403F5A0631A464023DB
:10258800936054E27B695A01BB69134403F5A06365
:102598009B6803F00803082B1AD17B695A01BB69B1
:1025A800134403F5A0631A46082393607A687B698D
:1025B8002C2101FB03F31344613305221A707B6855
:1025C8001B687A69D2B21146184602F0D4FD2EE291
:1025D8007B695A01BB69134403F5A0639B6803F048
:1025E8001003102B40D17A687B692C2101FB03F37F
:1025F80013445C3300221A607A687B692C2101FB42
:1026080003F31344613303221A707A687B692C211F
:1026180001FB03F313443D331B78002B12D17A6876
:102628007B692C2101FB03F313443C331B78002BFB
:1026380008D17A687B692C2101FB03F313443D33ED
:1026480001221A707B681B687A69D2B21146184653
:1026580002F091FD7B695A01BB69134403F5A0633D
:102668001A4610239360E2E17B695A01BB6913445F
:1026780003F5A0639B6803F08003802B64D17B681B
:102688001B69002B11D17A687B692C2101FB03F3AC
:102698001344613306221A707B681B687A69D2B2C8
:1026A8001146184602F067FD44E07A687B692C21E0
:1026B80001FB03F313445C331B685A1C79687B697C
:1026C8002C2000FB03F30B445C331A607A687B69A7
:1026D8002C2101FB03F313445C331B68022B20D924
:1026E8007A687B692C2101FB03F313445C330022D5
:1026F8001A607A687B692C2101FB03F31344603369
:1027080004221A707B69D9B27A687B692C2000FB95
:1027180003F3134460331B781A46786804F0CEFF3D
:1027280008E07A687B692C2101FB03F313446033CA
:1027380002221A707B695A01BB69134403F5A0632E
:102748001A468023936072E17B695A01BB6913447E
:1027580003F5A0639B6803F48063B3F5806F1BD116
:102768007A687B692C2101FB03F313446133082247
:102778001A707B681B687A69D2B21146184602F053
:10278800FAFC7B695A01BB69134403F5A0631A4636
:102798004FF4806393604AE17B695A01BB69134433
:1027A80003F5A0639B6803F00203022B40F03F810E
:1027B8007A687B692C2101FB03F3134461331B788E
:1027C800012B7DD17A687B692C2101FB03F313442B
:1027D800603301221A707A687B692C2101FB03F3AC
:1027E80013443F331B78022B0AD07A687B692C216B
:1027F80001FB03F313443F331B78032B40F00081A4
:102808007B681B69002B13D17A687B692C2101FB3B
:1028180003F3134455331B7883F00103D8B27A6865
:102828007B692C2101FB03F31344553302461A70CC
:102838007B681B69012B40F0E3807A687B692C2157
:1028480001FB03F313444C331B68002B00F0D880C2
:102858007A687B692C2101FB03F313444C331B6812
:1028680079687A692C2000FB02F20A444032128807
:102878001344013B79687A692C2000FB02F20A4470
:1028880040321288B3FBF2F3FB60FB6803F00103EC
:10289800002B00F0B5807A687B692C2101FB03F3DB
:1028A800134455331B7883F00103D8B27A687B69E7
:1028B8002C2101FB03F31344553302461A709FE0A1
:1028C8007A687B692C2101FB03F3134461331B787D
:1028D800032B09D17A687B692C2101FB03F313448C
:1028E800603302221A708BE07A687B692C2101FB25
:1028F80003F3134461331B78042B09D17A687B698D
:102908002C2101FB03F31344603302221A7077E091
:102918007A687B692C2101FB03F3134461331B782C
:10292800052B09D17A687B692C2101FB03F3134439
:10293800603305221A7063E07A687B692C2101FBF9
:1029480003F3134461331B78062B09D07A687B693B
:102958002C2101FB03F3134461331B78082B4FD15F
:102968007A687B692C2101FB03F313445C331B68F1
:102978005A1C79687B692C2000FB03F30B445C33F9
:102988001A607A687B692C2101FB03F313445C33DA
:102998001B68022B12D97A687B692C2101FB03F38F
:1029A80013445C3300221A607A687B692C2101FB8E
:1029B80003F31344603304221A7021E07A687B69B8
:1029C8002C2101FB03F31344603302221A707B6944
:1029D8005A01BB69134403F5A0631B683B613B695B
:1029E80023F080433B613B6943F000433B617B69D3
:1029F8005A01BB69134403F5A0631A463B69136087
:102A08007B695A01BB69134403F5A0631A46022384
:102A180093607B69D9B27A687B692C2000FB03F349
:102A2800134460331B781A46786804F047FE00BFE9
:102A38002037BD4680BD80B58AB000AF78607B681E
:102A48001B687B627B6A3B627B681B681B6AFB6155
:102A5800FB6903F00F03BB61FB695B0C03F00F0319
:102A68007B61FB691B09C3F30A033B617B69022B8A
:102A780004D07B69052B00F0A980AAE03B69002BF4
:102A880000F0A6807A68BB692C2101FB03F313448C
:102A980044331B68002B00F09B807A68BB692C21AB
:102AA80001FB03F3134450331A683B691A447968ED
:102AB800BB692C2000FB03F30B444C331B689A4280
:102AC8007AD87B6818687A68BB692C2101FB03F304
:102AD800134444331B683A6992B2194601F0A2FEC6
:102AE8007A68BB692C2101FB03F3134444331A6849
:102AF8003B691A447968BB692C2000FB03F30B443B
:102B080044331A607A68BB692C2101FB03F3134430
:102B180050331A683B691A447968BB692C2000FB5A
:102B280003F30B4450331A60BB695A013B6A1344E0
:102B380003F5A0631B69DB0CC3F30903FB607A6828
:102B4800BB692C2101FB03F3134440331B881A464D
:102B58003B6993423CD1FB68002B39D0BB695A01D1
:102B68003B6A134403F5A0631B68BB60BB6823F092
:102B78008043BB60BB6843F00043BB60BB695A013C
:102B88003B6A134403F5A0631A46BB6813607A686E
:102B9800BB692C2101FB03F3134454331B7883F0E6
:102BA8000103D8B27A68BB692C2101FB03F31344F3
:102BB800543302461A700BE07A68BB692C2101FB7A
:102BC80003F31344603304221A7001E000BF00E0ED
:102BD80000BF00BF2837BD4680BD80B586B000AFB6
:102BE80078607B681B687B617B693B613B6903F5A7
:102BF80088631B68FB603B6903F588631B68BB60DF
:102C0800BB6823F02E03BB60FB6803F00203022BB2
:102C18000BD1FB6803F00103012B02D1786804F0A3
:102C280031FDBB6843F00203BB60FB6803F0080397
:102C3800082B32D1BB6843F00803BB60FB6803F084
:102C48000403042B26D17B689B69022B13D1FB68F4
:102C580003F4C023B3F5802F06D17B681B680221DB
:102C6800184601F04DFF11E07B681B6801211846EA
:102C780001F046FF0AE07B68DB68012B06D13B695F
:102C880003F580631A464EF660235360786804F0B3
:102C980023FD02E0786804F02DFDFB6803F02003B3
:102CA800202B03D1BB6843F02003BB603B6903F5CD
:102CB80088631A46BB68136000BF1837BD4680BDDD
:102CC80080B584B000AF78607B68002B01D1012308
:102CD8002BE17B6893F83D30DBB2002B06D17B6893
:102CE800002283F83C207868FDF77EFE7B6824226A
:102CF80083F83D207B681B681A687B681B6822F094
:102D080001021A607B681B681A687B681B6842F4BA
:102D180000421A607B681B681A687B681B6822F48B
:102D280000421A6001F020FAF8607B685B68814A0B
:102D3800934207D8FB68804A934294BF012300233B
:102D4800DBB206E0FB687D4A934294BF012300236F
:102D5800DBB2002B01D00123E7E0FB68784AA2FB35
:102D680003239B0CBB607B681B685B6823F03F01F7
:102D78007B681B68BA680A435A607B681B681B6AD1
:102D880023F03F017B685B686A4A934202D8BB68BC
:102D9800013309E0BB684FF4967202FB03F3694AFA
:102DA800A2FB03239B0901337A6812680B43136261
:102DB8007B681B68DB6923F44F4222F0FF027B68C3
:102DC8005B685C498B4219D8FB68591E7B685B6855
:102DD8005B00B1FBF3F3591C40F6FC730B40002B6E
:102DE8000AD0FB68591E7B685B685B00B1FBF3F394
:102DF8000133C3F30B0351E004234FE07B689B6866
:102E0800002B11D1FB68581E7B6859680B465B0084
:102E18000B44B0FBF3F30133C3F30B03002B0CBFDC
:102E280001230023DBB212E0FB68581E7B68596857
:102E38000B469B000B4499000B44B0FBF3F30133A2
:102E4800C3F30B03002B0CBF01230023DBB2002BC1
:102E580001D0012322E07B689B68002B0ED1FB6820
:102E6800581E7B6859680B465B000B44B0FBF3F3B4
:102E78000133C3F30B0343F400430FE0FB68581E10
:102E88007B6859680B469B000B4499000B44B0FBC8
:102E9800F3F30133C3F30B0343F440437968096840
:102EA8001343CB617B681B681B6823F0C0017B68F8
:102EB800DA697B681B6A1A437B681B680A431A60D5
:102EC8007B681B689B6823F4034323F0FF037A683D
:102ED80011697A68D26811437A6812680B43936063
:102EE8007B681B68DB6823F0FF017B685A697B6895
:102EF8009B691A437B681B680A43DA607B681B6816
:102F08001A687B681B6842F001021A607B6800221D
:102F18001A647B68202283F83D207B6800221A63AC
:102F28007B68002283F83E20002318461037BD46F0
:102F380080BD00BFA08601007F841E00FF083D0001
:102F480083DE1B43D34D621080B588B000AF786034
:102F58007B68002B01D1012328E17B6893F841307D
:102F6800DBB2002B09D17B68002283F840207B6804
:102F7800904A5A637868FDF77FFD7B68022283F8E0
:102F880041207B681B68DB697A68126823F47B63DD
:102F980023F00F03D3617B681B6802221A627B68E7
:102FA8005B69022B60D07B68DB68002B02D11023A1
:102FB8007B6101E020237B617B689B68202B02D822
:102FC8007B695B007B61012001F0D2F9F8607B68C6
:102FD8001B69B3F5007F25D17B68DB68002B10D017
:102FE8007B699B00FA68B2FBF3F213469B0013441B
:102FF8005B001A467B685B69B2FBF3F305333B6100
:103008001FE07B69DB00FA68B2FBF3F213469B0012
:1030180013445B001A467B685B69B2FBF3F3053324
:103028003B610EE0FA687B69B2FBF3F213469B0042
:1030380013445B001A467B685B69B2FBF3F3053304
:103048003B613B695C4AA2FB0323DB083B613B69AC
:1030580003F00103BB613A69BB69D31A5B08FB61E2
:10306800BB691B02BB6103E00223FB610023BB6158
:10307800FB69012B02D9FB69FF2B07D97B685B6CC5
:1030880043F010027B685A6401238FE07B681A6959
:10309800BB6942EA03017B681B68FA690A431A6242
:1030A8007B681B68DB6923F47B6323F00F037A6872
:1030B80051687A68926811437A68D26811437A68CD
:1030C80092690A431A437B681B6842F40062DA611A
:1030D8007B681B6A012B61D17B68384A5A637B681D
:1030E8001B68374A934201D1364B01E04FF0402329
:1030F800DB697A68126832498A4201D1314A01E0B3
:103108004FF0402223F47B6323F00F03D3617B68E5
:103118001B682B4A934201D12A4B01E04FF0402310
:1031280002221A627B681B68254A934201D1254B0B
:1031380001E04FF04023DB697B817B685B68B3F576
:10314800007F03D07B685B68002B03D14FF480734A
:103158003B6101E000233B613B699AB27B689B6855
:103168009BB213439AB27B68DB689BB213439AB253
:103178007B689B699BB213439AB27B8913439BB2CA
:1031880043F400637B817B681B680D4A934201D13D
:103198000C4B01E04FF040237A89DA617B6800220A
:1031A8005A647B68012283F841200023184620379F
:1031B800BD4680BDC7320008CDCCCCCCDD3300087D
:1031C800003800400034004080B483B000AF78601D
:1031D80000BF0C37BD465DF8047B704780B483B0F0
:1031E80000AF786000BF0C37BD465DF8047B7047C0
:1031F80080B483B000AF786000BF0C37BD465DF87F
:10320800047B704780B582B000AF78607B685B6AEA
:103218001A887B681B68DA607B685B6A9A1C7B6823
:103228005A627B685B8D9BB2013B9AB27B685A8578
:103238007B685B8D9BB2002B0ED17B681B685A683C
:103248007B681B6822F0A0025A607B68012283F821
:1032580041207868FFF7B8FF00BF0837BD4680BD3A
:1032680080B582B000AF78607B681B68DA687B68DD
:10327800DB6A92B21A807B68DB6A9A1C7B68DA6226
:103288007B685B8E9BB2013B9AB27B685A867B68EF
:103298005B8E9BB2002B0ED17B681B685A687B68DB
:1032A8001B6822F060025A607B68012283F8412083
:1032B8007868FFF793FF00BF0837BD4680BD80B52B
:1032C80086B000AF78607B681B689B687B617B6811
:1032D80093F84130DBB2042B3AD17B6903F0010348
:1032E800012B09D17B681B685B6803F04003402B06
:1032F80002D17868FFF7B4FF7B6903F04003402BE5
:1033080026D17B681B685B6803F02003202B1FD144
:103318007B681B685A687B681B6822F060025A60E9
:1033280000233B617B681B68DB683B617B681B682B
:103338009B683B613B697B68012283F841207B687D
:103348005B6C43F002027B685A647868FFF750FFB1
:103358007B6893F84130DBB2032B36D17B6903F0ED
:103368000203022B09D17B681B685B6803F08003AA
:10337800802B02D17868FFF745FF7B6903F00803CB
:10338800082B22D17B681B685B6803F02003202B85
:103398001BD17B681B685A687B681B6822F0A002F7
:1033A8005A600023FB607B681B689B68FB60FB68B6
:1033B8007B68012283F841207B685B6C43F0040240
:1033C8007B685A647868FFF713FF00BF1837BD465B
:1033D80080BD000080B588B000AF78607B681B684E
:1033E8009B68FB617B681B68924A934201D1924BB0
:1033F80001E04FF040239B68BB617B681B685B68FA
:103408007B617B681B688B4A934201D18A4B01E040
:103418004FF040235B683B617B685B68B3F5007FD6
:1034280004D07B685B68002B40F09980FB6903F04F
:103438000203022B07D17B6903F08003002B02D023
:10344800786800F025F9BB6903F00103012B07D167
:103458003B6903F04003002B02D0786800F0C8F9FC
:10346800BB6903F04003402B3AD13B6903F02003CA
:10347800002B35D07B681B686E4A934201D16E4B96
:1034880001E04FF040235A687B681B6869498B420A
:1034980001D1694B01E04FF0402322F060025A60ED
:1034A8007B681B685A687B681B6822F0A0025A6018
:1034B8000023FB607B681B68DB68FB607B681B681C
:1034C8009B68FB60FB687B68012283F841207B686E
:1034D8005B6C43F002027B685A647868FFF788FEE9
:1034E800FB6903F00803082B40F0C3807B6903F0F5
:1034F8002003002B00F0BD807B681B685A687B683E
:103508001B6822F0A0025A607B681B68494A9342F4
:1035180001D1494B01E04FF040235A687B681B6892
:1035280044498B4201D1444B01E04FF0402322F043
:1035380060025A600023BB607B681B689B68BB60A5
:10354800BB687B68012283F841207B685B6C43F091
:1035580004027B685A647868FFF74AFE89E0BB6911
:1035680003F00203022B07D13B6903F08003002B11
:1035780002D0786800F0BEF8FB6903F00103012B64
:1035880007D17B6903F04003002B02D0786800F074
:10359800FDF8FB6903F04003402B2FD17B6903F052
:1035A8002003002B2AD07B681B685A687B681B683D
:1035B80022F060025A607B681B681E4A934201D160
:1035C8001D4B01E04FF040235A687B681B6819497E
:1035D8008B4201D1184B01E04FF0402322F0A002AA
:1035E8005A607B68012283F841207B685B6C43F05A
:1035F80002027B685A647868FFF7FAFDBB6903F03A
:103608000803082B36D13B6903F02003002B31D087
:103618007B681B68074A934201D1074B01E04FF0D2
:1036280040235A687B681B6802498B4206D1024BCB
:1036380006E000BF00380040003400404FF040234F
:1036480022F0A0025A607B681B685A687B681B6876
:1036580022F060025A607B68012283F841207B686F
:103668005B6C43F004027B685A647868FFF7C0FD1E
:1036780000E000BF00BF2037BD4680BD80B483B0E6
:1036880000AF786000BF0C37BD465DF8047B70471B
:1036980080B582B000AF78607B685B6A991C7A68F5
:1036A80051621A887B681B68DA607B685B8D9BB205
:1036B800013B9AB27B685A857B685B8D9BB2002B75
:1036C80013D17B681B685A687B681B6822F0A002CC
:1036D8005A607B685B8E9BB2002B06D17B68012207
:1036E80083F841207868FFF7C9FF00BF0837BD4657
:1036F80080BD000080B582B000AF78607B685B6AEF
:10370800991C7A68516219887B681B681D4A934224
:1037180001D11D4B01E04FF040230A46DA607B6877
:103728005B8D9BB2013B9AB27B685A857B685B8D47
:103738009BB2002B21D17B681B68124A934201D1AE
:10374800114B01E04FF040235A687B681B680D4914
:103758008B4201D10C4B01E04FF0402322F0A00234
:103768005A607B685B8E9BB2002B06D17B68012276
:1037780083F841207868FFF781FF00BF0837BD460E
:1037880080BD00BF003800400034004080B582B0E2
:1037980000AF78607B681B68D8687B68DB6A991C17
:1037A8007A68D16282B21A807B685B8E9BB2013BD9
:1037B8009AB27B685A867B685B8E9BB2002B13D1CA
:1037C8007B681B685A687B681B6822F060025A6035
:1037D8007B685B8D9BB2002B06D17B68012283F846
:1037E80041207868FFF74AFF00BF0837BD4680BD13
:1037F80080B582B000AF78607B681B68204A93422E
:1038080001D1204B01E04FF04023D8687B68DB6A88
:10381800991C7A68D16282B21A807B685B8E9BB2EF
:10382800013B9AB27B685A867B685B8E9BB2002B01
:1038380021D17B681B68124A934201D1114B01E0E8
:103848004FF040235A687B681B680D498B4201D1B1
:103858000C4B01E04FF0402322F060025A607B6875
:103868005B8D9BB2002B06D17B68012283F8412037
:103878007868FFF703FF00BF0837BD4680BD00BF6B
:10388800003800400034004080B586B000AF786052
:103898007B68002B01D1012367E27B681B6803F07A
:1038A8000103002B75D0884B9B6803F00C03042B95
:1038B8000CD0854B9B6803F00C03082B12D1824B6C
:1038C8005B6803F48003B3F5800F0BD17E4B1B6854
:1038D80003F40033002B5BD07B685B68002B57D167
:1038E800012342E27B685B68B3F5803F06D1764BE3
:1038F8001B68754A43F4803313601DE07B685B687E
:10390800B3F5A02F0CD1704B1B686F4A43F480238A
:1039180013606D4B1B686C4A43F4803313600BE0F3
:10392800694B1B68684A23F480331360664B1B6835
:10393800654A23F4802313607B685B68002B13D0EF
:10394800FDF7BCFA386108E0FDF7B8FA02463B69B2
:10395800D31A642B01D9032307E25B4B1B6803F4DA
:103968000033002BF0D014E0FDF7A8FA386108E026
:10397800FDF7A4FA02463B69D31A642B01D9032345
:10398800F3E1514B1B6803F40033002BF0D100E046
:1039980000BF7B681B6803F00203002B63D04A4B0F
:1039A8009B6803F00C03002B0BD0474B9B6803F07C
:1039B8000C03082B1CD1444B5B6803F48003002BD9
:1039C80016D1414B1B6803F00203002B05D07B681E
:1039D800DB68012B01D00123C7E13B4B1B6823F0B7
:1039E800F8027B681B69DB00374913430B603AE038
:1039F8007B68DB68002B20D0344B01221A60FDF76E
:103A08005DFA386108E0FDF759FA02463B69D31AB6
:103A1800022B01D90323A8E12B4B1B6803F00203F7
:103A2800002BF0D0284B1B6823F0F8027B681B6939
:103A3800DB00254913430B6015E0244B00221A6074
:103A4800FDF73CFA386108E0FDF738FA02463B69B1
:103A5800D31A022B01D9032387E11B4B1B6803F000
:103A68000203002BF0D17B681B6803F00803002BCE
:103A780036D07B685B69002B16D0154B01221A6083
:103A8800FDF71CFA386108E0FDF718FA02463B69B1
:103A9800D31A022B01D9032367E10B4B5B6F03F0A9
:103AA8000203002BF0D01BE0094B00221A60FDF73F
:103AB80005FA38610EE0FDF701FA02463B69D31AB0
:103AC800022B07D9032350E1003802400000474287
:103AD800800E4742884B5B6F03F00203002BEAD14C
:103AE8007B681B6803F00403002B00F09780002319
:103AF800FB75814B1B6C03F08053002B0FD1002307
:103B0800BB607D4B1B6C7C4A43F0805313647A4B3B
:103B18001B6C03F08053BB60BB680123FB75774BBC
:103B28001B6803F48073002B18D1744B1B68734A0D
:103B380043F480731360FDF7C1F9386108E0FDF7BD
:103B4800BDF902463B69D31A022B01D903230CE1C4
:103B58006A4B1B6803F48073002BF0D07B689B686A
:103B6800012B06D1644B1B6F634A43F001031367B3
:103B78001CE07B689B68052B0CD15F4B1B6F5E4A72
:103B880043F0040313675C4B1B6F5B4A43F001036C
:103B980013670BE0584B1B6F574A23F00103136759
:103BA800554B1B6F544A23F0040313677B689B68CB
:103BB800002B15D0FDF782F938610AE0FDF77EF990
:103BC80002463B69D31A41F28832934201D9032352
:103BD800CBE0494B1B6F03F00203002BEED014E03F
:103BE800FDF76CF938610AE0FDF768F902463B69B0
:103BF800D31A41F28832934201D90323B5E03E4BF0
:103C08001B6F03F00203002BEED1FB7D012B05D1C6
:103C1800394B1B6C384A23F0805313647B689B69CB
:103C2800002B00F0A180344B9B6803F00C03082B99
:103C38005CD07B689B69022B41D1314B00221A6012
:103C4800FDF73CF9386108E0FDF738F902463B69B1
:103C5800D31A022B01D9032387E0274B1B6803F0F3
:103C68000073002BF0D17B68DA697B681B6A1A4302
:103C78007B685B6A9B011A437B689B6A5B08013B14
:103C88001B041A437B68DB6A1B061B4913434B6002
:103C98001B4B01221A60FDF711F9386108E0FDF7A6
:103CA8000DF902463B69D31A022B01D903235CE0C4
:103CB800114B1B6803F00073002BF0D054E0104B3D
:103CC80000221A60FDF7FAF8386108E0FDF7F6F807
:103CD80002463B69D31A022B01D9032345E0064B60
:103CE8001B6803F00073002BF0D13DE07B689B69F3
:103CF800012B07D1012338E0003802400070004052
:103D0800600047421B4B5B68FB607B689B69012B2B
:103D180028D0FB6803F480027B68DB699A4221D1D2
:103D2800FB6803F03F027B681B6A9A421AD1FA6863
:103D380047F6C07313407A68526A9201934211D1D0
:103D4800FB6803F440327B689B6A5B08013B1B04F9
:103D58009A4207D1FB6803F070627B68DB6A1B0636
:103D68009A4201D0012300E0002318461837BD46C7
:103D780080BD00BF0038024080B584B000AF7860D5
:103D880039607B68002B01D10123CCE0684B1B68AC
:103D980003F007033A689A420CD9654B3A68D2B2E5
:103DA8001A70634B1B6803F007033A689A4201D004
:103DB8000123B8E07B681B6803F00203002B20D0C6
:103DC8007B681B6803F00403002B05D0594B9B68E4
:103DD800584A43F4E05393607B681B6803F0080378
:103DE800002B05D0534B9B68524A43F460439360C1
:103DF800504B9B6823F0F0027B689B684D49134346
:103E08008B607B681B6803F00103002B44D07B6840
:103E18005B68012B07D1474B1B6803F40033002B69
:103E280019D101237FE07B685B68022B03D07B6894
:103E38005B68032B07D13F4B1B6803F00073002B13
:103E480009D101236FE03B4B1B6803F00203002BF1
:103E580001D1012367E0374B9B6823F003027B689D
:103E68005B68344913438B60FDF728F8F8600AE073
:103E7800FDF724F80246FB68D31A41F288329342D0
:103E880001D903234FE02B4B9B6803F00C027B689E
:103E98005B689B009A42EBD1254B1B6803F0070334
:103EA8003A689A420CD2224B3A68D2B21A70204B26
:103EB8001B6803F007033A689A4201D0012332E0F5
:103EC8007B681B6803F00403002B08D0194B9B6820
:103ED80023F4E0527B68DB68164913438B607B68E8
:103EE8001B6803F00803002B09D0124B9B6823F4CE
:103EF80060427B681B69DB000E4913438B6000F04E
:103F080021F802460B4B9B681B0903F00F030A4973
:103F1800CB5C22FA03F3094A1360094B1B68184665
:103F2800FCF788FF002318461037BD4680BD00BF48
:103F3800003C0240003802409C7D00080000002040
:103F4800040000202DE9B04F94B000AF00237B643B
:103F58000023FB6400233B640023BB64794B9B680C
:103F680003F00C03082B0DD0082B00F2E180002B86
:103F780002D0042B03D0DBE0734BBB64DBE0734B54
:103F8800BB64D8E06F4B5B6803F03F037B646D4B09
:103F98005B6803F48003002B63D06A4B5B689B0962
:103FA8000022BB63FA63BB6BC3F308033B630023C4
:103FB8007B63D7E90C4522462B464FF000004FF0B3
:103FC8000001590141EAD261500102460B462146DF
:103FD800511A3961294663EB01037B614FF00002F6
:103FE8004FF00003D7E904AB59468B01514643EA29
:103FF800916351468A015146B2EB0108594663EB79
:1040080001094FF000024FF000034FEAC90343EAE9
:1040180058734FEAC80290469946234618EB0303A3
:10402800BB602B4649EB0303FB604FF000024FF0E7
:104038000003D7E9024529464B02214643EAD153FA
:1040480021464A02104619467B6C0022BB62FA627E
:10405800D7E90A23FCF71EFB02460B461346FB640E
:1040680058E0384B5B689B09002218461146C0F39C
:1040780008033B6200237B62D7E9088942464B4626
:104088004FF000004FF00001590141EAD2615001A0
:1040980002460B464146B2EB010A494663EB010B67
:1040A8004FF000024FF000034FEA8B1343EA9A6384
:1040B8004FEA8A12B2EB0A0463EB0B054FF00002D9
:1040C8004FF00003EB0043EA5473E20014461D4628
:1040D8004346E3183B604B4645EB03037B604FF0D8
:1040E80000024FF00003D7E9004529468B0221461C
:1040F80043EA915321468A02104619467B6C0022F6
:10410800BB61FA61D7E90623FCF7C4FA02460B46FD
:104118001346FB640B4B5B681B0C03F00303013372
:104128005B003B64FA6C3B6CB2FBF3F3BB6402E0EC
:10413800054BBB6400BFBB6C18465037BD46BDE895
:10414800B08F00BF003802400024F40000127A004B
:1041580080B400AF034B1B681846BD465DF8047B6E
:10416800704700BF0000002080B500AFFFF7F0FFE8
:104178000246054B9B689B0A03F007030349CB5C87
:1041880022FA03F3184680BD00380240AC7D0008CF
:1041980080B586B000AF786000237B6100233B6167
:1041A8007B681B6803F00103002B05D17B681B6843
:1041B80003F00403002B38D0684B00221A60FCF788
:1041C8007DFE786108E0FCF779FE02467B69D31A28
:1041D800022B01D90323BDE0614B1B6803F0006388
:1041E800002BF0D17B685A687B689B689B011A4357
:1041F8007B68DB681B075A491343C1F88430574B67
:1042080001221A60FCF75AFE786108E0FCF756FEB6
:1042180002467B69D31A022B01D903239AE0504B3B
:104228001B6803F00063002BF0D07B681B6803F069
:104238000203002B00F083800023FB60484B1B6CBB
:10424800474A43F080531364454B1B6C03F080537B
:10425800FB60FB68434B1B68424A43F4807313605E
:10426800FCF72CFE786108E0FCF728FE02467B6923
:10427800D31A022B01D903236CE03A4B1B6803F4D1
:104288008073002BF0D0364B1B6F03F440733B61F7
:104298003B69002B2FD07B681B6903F440733A6994
:1042A8009A4228D02E4B1B6F23F440733B612E4B50
:1042B80001221A602C4B00221A60294A3B691367B5
:1042C800274B1B6F03F00103012B14D1FCF7F6FDFC
:1042D80078610AE0FCF7F2FD02467B69D31A41F2E5
:1042E8008832934201D9032334E01D4B1B6F03F03E
:1042F8000203002BEED07B681B6903F44073B3F50F
:10430800407F0DD1164B9B6823F4F8127B681B691C
:1043180023F0704323F44073114913438B6005E085
:104328000F4B9B680E4A23F4F81393600C4B1A6FDB
:104338007B681B69C3F30B03094913430B677B684D
:104348001B6803F00803002B03D07B681A7D074B1A
:104358001A60002318461837BD4680BD68004742DA
:104368000038024000700040400E4742E0114742CA
:1043780080B487B000AF786000237B6100233B6185
:104388000023FB600023BB607B68012B40D1244BDA
:104398009B6803F40003FB60FB68002B05D0FB68F7
:1043A800012B31D11F4B7B6131E01D4B5B6803F45E
:1043B8008003B3F5800F09D1194BD3F8843003F08B
:1043C8003F03194AB2FBF3F33B6108E0144BD3F8FF
:1043D800843003F03F03154AB2FBF3F33B61104B03
:1043E800D3F884309B09C3F308023B6902FB03F34B
:1043F800BB600B4BD3F884301B0F03F00703BA687C
:10440800B2FBF3F37B6102E000237B6100BF00BFD6
:104418007B6918461C37BD465DF8047B704700BFB2
:10442800003802400080BB0000127A000024F4002B
:1044380080B582B000AF78607B68002B01D1012382
:104448007BE07B685B6A002B08D17B685B68B3F50F
:10445800827F09D07B680022DA6105E07B68002250
:104468001A617B6800225A617B6800229A627B6825
:1044780093F85130DBB2002B06D17B68002283F819
:1044880050207868FCF7C6FB7B68022283F851202D
:104498007B681B681A687B681B6822F040021A60F8
:1044A8007B685B6803F482727B689B6803F404434F
:1044B8001A437B68DB6803F400631A437B681B6953
:1044C80003F002031A437B685B6903F001031A4394
:1044D8007B689B6903F400731A437B68DB6903F00C
:1044E80038031A437B681B6A03F0800342EA03011E
:1044F8007B689B6A03F400527B681B680A431A6056
:104508007B689B691B0C03F004017B685B6A03F002
:1045180010027B681B680A435A607B681B68DA696B
:104528007B681B6822F40062DA617B6800225A65A6
:104538007B68012283F85120002318460837BD46BE
:1045480080BD84B080B584B000AF786007F11C00EE
:1045580080E80E003B6B012B22D17B689B6B23F418
:1045680080327B689A637B68DB6823F4840323F0DA
:1045780040037A68D3607B68DB6823F440127B6869
:10458800DA60FB6C012B05D17B68DB6843F4801291
:104598007B68DA60786800F0BFF90346FB731AE0BD
:1045A8007B68DB6843F040027B68DA60786800F07B
:1045B800B3F90346FB733B6C002B06D17B689B6BFE
:1045C80043F480327B689A6305E07B689B6B23F435
:1045D80080327B689A63BB6A012B0BD17B689B682E
:1045E80043F006027B689A607B689B6843F0200270
:1045F8007B689A60FB7B18461037BD46BDE8804053
:1046080004B0704780B483B000AF78607B689B6863
:1046180043F001027B689A60002318460C37BD46B8
:104628005DF8047B704780B483B000AF78607B6826
:104638009B6823F001027B689A60002318460C37B8
:10464800BD465DF8047B704780B584B000AF7860E4
:104658000B46FB700023FB607B68DB6823F0C042DD
:104668007B68DA60FB78012B15D17B68DB6843F047
:1046780000527B68DA600120FCF72CFCFB680133F0
:10468800FB60786800F039F90346012B1ED0FB68FF
:10469800312BF0D91AE0FB78002B15D17B68DB6849
:1046A80043F080427B68DA600120FCF713FCFB686A
:1046B8000133FB60786800F020F90346002B05D031
:1046C800FB68312BF0D901E0012305E0FB68322BB0
:1046D80001D1012300E0002318461037BD4680BDF4
:1046E80080B485B000AF786039600023FB60FB6858
:1046F8000133FB60FB68134A934201D903231BE093
:104708007B681B69002BF2DA0023FB603B689B0186
:1047180043F020027B681A61FB680133FB60FB6889
:10472800084A934201D9032306E07B681B6903F01A
:104738002003202BF0D0002318461437BD465DF81F
:10474800047B7047400D030080B485B000AF7860EB
:104758000023FB60FB680133FB60FB68114A93424E
:1047680001D9032318E07B681B69002BF2DA0023C8
:10477800FB607B6810221A61FB680133FB60FB68F1
:10478800084A934201D9032306E07B681B6903F0BA
:104798001003102BF0D0002318461437BD465DF8DF
:1047A800047B7047400D030080B489B000AFF86007
:1047B800B96011461A460B46FB711346BB80FB686D
:1047C8007B61BB68FB6197F82830002B23D1BB883D
:1047D80003339B083B610023BB6118E0FB791A0394
:1047E8007B69134403F580531A46FB691B68136001
:1047F800FB690133FB61FB690133FB61FB69013331
:10480800FB61FB690133FB61BB690133BB61BA69B9
:104818003B699A42E2D3002318462437BD465DF827
:10482800047B704780B48BB000AFF860B960134662
:10483800FB80FB68BB61BB687B62FB889B089BB203
:104848007B61FB8803F00303FB8300233B6214E0D6
:10485800BB6903F580531A687B6A1A607B6A013367
:104868007B627B6A01337B627B6A01337B627B6A92
:1048780001337B623B6A01333B623A6A7B699A4245
:10488800E6D3FB8B002B1ED000233B62BB6903F5EC
:1048980080531A4607F1100312681A603A693B6A96
:1048A800DBB2DB0022FA03F3DAB27B6A1A703B6AE6
:1048B80001333B627B6A01337B62FB8B013BFB83E9
:1048C800FB8B002BEAD17B6A18462C37BD465DF876
:1048D800047B704780B485B000AF78607B685B6903
:1048E800FB607B689B69FA681340FB60FB681846AD
:1048F8001437BD465DF8047B704780B483B000AFC1
:1049080078607B685B6903F0010318460C37BD4685
:104918005DF8047B7047000080B485B000AF786014
:104928000023FB60FB680133FB60FB68134A93427A
:1049380001D903231BE07B681B69002BF2DA0023F3
:10494800FB607B681B6943F001027B681A61FB68A6
:104958000133FB60FB68094A934201D9032306E04F
:104968007B681B6903F00103012BF0D00023184674
:104978001437BD465DF8047B704700BF400D030047
:1049880084B080B586B000AF786007F1240080E875
:104998000E000023FB757B68FB60FB6803F5606312
:1049A8001A46002313607B689B6B43F400127B68F4
:1049B8009A637B689B6B23F400227B689A637B680D
:1049C8009B6B23F480227B689A637B68DB6B03F420
:1049D8008073002B18D0FB6A012B0AD1FB6803F502
:1049E80080631B68FA6802F5806243F00403136071
:1049F80014E0FB6803F580631B68FA6802F58062BF
:104A080023F00403136009E0FB6803F580631B6867
:104A1800FA6802F5806223F00403136010217868B5
:104A2800FFF75EFE0346002B01D00123FB75786873
:104A3800FFF78AFE0346002B01D00123FB750023F4
:104A48003B6115E03B695A01FB68134403F5A06319
:104A58001A464FF0FF3393603B695A01FB681344D1
:104A680003F5A0631A460023D3603B6901333B6119
:104A7800BB6A3A699A42E5D37B6800229A617B68EF
:104A88004FF0FF325A617B68DB6B03F48073002BB5
:104A98000BD07B684FF400725A627B68134A9A62A3
:104AA8007B68134AC3F8002109E07B6880225A62B8
:104AB8007B68104A9A627B680F4AC3F800213B6BF7
:104AC800002B05D17B689B6943F010027B689A61D3
:104AD8007B689A69094B13437A689361FB7D184692
:104AE8001837BD46BDE8804004B070470002000199
:104AF8000003E00080006000E0004000080020A300
:104B080080B485B000AF78600B46FB707B68FB60B3
:104B1800FB6803F580631B68FA6802F5806223F07E
:104B280003031360FB6803F580631A68FB7803F0DE
:104B38000303F96801F5806113430B60FB78012BCF
:104B480007D1FB6803F580631A464BF68033536040
:104B580009E0FB78022B06D1FB6803F580631A464F
:104B680041F270735360002318461437BD465DF850
:104B7800047B704780B584B000AF78607B68FB60C9
:104B88000023BB60FB6803F588631B68BB60BB68D8
:104B980023F02E03BB60BB68FA6802F5886243F411
:104BA800807313606420FCF795F9BB68FA6802F516
:104BB800886223F4807313600A20FCF78BF90023C2
:104BC80018461037BD4680BD80B485B000AF786008
:104BD8000B46FB707B68FB600023BB60FB6803F53A
:104BE80088631B68BB60BB6823F02E03BB60BB688F
:104BF80003F48053002B09D1FB78012B06D1BB6845
:104C0800FA6802F5886243F480531360BB6803F4C2
:104C18008053B3F5805F09D1FB78002B06D1BB68C0
:104C2800FA6802F5886223F480531360002318465B
:104C38001437BD465DF8047B704780B485B000AF7B
:104C480078607B68FB600023BB60FB6803F58863C2
:104C58001B68BB60BB685B0C03F003031846143782
:104C6800BD465DF8047B704780B485B000AF7860BE
:104C78007B68FB60FB6803F580639B689BB2184602
:104C88001437BD465DF8047B7047000080B588B0D6
:104C980000AF7860084611461A460346FB700B467B
:104CA800BB7013467B700023FB777B683B61FB7806
:104CB8005A013B69134403F5A0631A464FF0FF33CA
:104CC800936097F82C30032B7ED801A252F823F07A
:104CD800E94C0008934D0008E94C0008554D0008C0
:104CE800FB785A013B69134403F5A0631A4640F266
:104CF8009D43D36097F90230002B10DAFB785A01F4
:104D08003B69134403F5A063DB68FA7851013A69FB
:104D18000A4402F5A06243F48073D36057E07B68CD
:104D2800DB6B03F48073002B51D0FB785A013B698D
:104D3800134403F5A063DB68FA7851013A690A4421
:104D480002F5A06243F06003D36040E0FB785A01AB
:104D58003B69134403F5A0631A4640F29D63D36090
:104D680097F90230002B34DAFB785A013B69134477
:104D780003F5A063DB68FA7851013A690A4402F541
:104D8800A06243F48073D36023E0FB785A013B6947
:104D9800134403F5A0631A4640F22523D36097F91C
:104DA8000230002B17DAFB785A013B69134403F5EC
:104DB800A063DB68FA7851013A690A4402F5A062F7
:104DC80043F4C073D36006E00123FB7704E000BF1F
:104DD80002E000BF00E000BFFB785A013B691344C2
:104DE80003F5A063DB68FA7851013A690A4402F5D1
:104DF800A06243F00203D3603B6903F580639A69BC
:104E0800FB7803F00F03012101FA03F3396901F577
:104E1800806113438B617B689B6943F000727B68F8
:104E28009A6197F90230002B03DA4FF40043BB6113
:104E380001E00023BB617868FFF7FFFEF86097F890
:104E48002830022B06D1FB68022B03D04FF4003325
:104E58007B6101E000237B617B789B0503F0FE52B8
:104E6800BB78DB0203F4F0431A4397F82C309B0419
:104E780003F440231A433B8EC3F30A031A43BB6966
:104E88001A43FB7859013B690B4403F5A0631946A3
:104E98007B6913430B6097F82C30032B03D097F8EA
:104EA8002C30012B0FD1FB785A013B69134403F5D1
:104EB800A0631B68FA7851013A690A4402F5A062B6
:104EC80043F000531360FB7F18462037BD4680BD72
:104ED80080B58CB002AFF860B9601346FB71FB680F
:104EE8003B62BB685B78FB614FF480737B83FB6834
:104EF800DB6B03F48073002B2DD0BB681B79002B70
:104F080029D1FB79012B17D1BB68DB79002B03D0A2
:104F1800BB68DB79022B0FD1FB695A013B6A13444A
:104F280003F5A063DB68FA6951013A6A0A4402F59D
:104F3800A06223F07003D360FB79002B0BD1BB6810
:104F48005B79012B07D1BB685B781946F86800F0DC
:104F58000FFA0023F8E0BB685B69002B18D0BB6828
:104F68005B69BA6812891344013BBA681289B3FBBA
:104F7800F2F3FB84FA8C7B8B9A420BD97B8BFB84F4
:104F8800FB8CBA68128903FB02F2BB681A6101E064
:104F98000123FB84BB68DB78002B07D0FB8CBA6845
:104FA800128903FB02F2BB681A6103E0BB685A6905
:104FB800BB681A61BB681B69C3F31202FB8CD90476
:104FC800634B0B401A43BB689B7A5B0703F0C043F3
:104FD800F9694801396A014401F5A06113430B617D
:104FE800FB79002B09D0BB68D968FB695A013B6A79
:104FF800134403F5A0630A465A613B6A03F58063CC
:105008009B6803F00103002B0CBF01230023DBB2D4
:105018007B76FB695A013B6A134403F5A0631B685E
:10502800FA6951013A6A0A4402F5A06223F0005372
:105038001360FB695A013B6A134403F5A0631A68BD
:105048007B7E5B07F9694801396A014401F5A06173
:1050580013430B60FB695A013B6A134403F5A063D1
:105068001B683B613B6923F080433B61BB68DB788D
:10507800002B04D03B6943F400433B6103E03B69E8
:1050880023F400433B613B6943F000433B61FB6908
:105098005A013B6A134403F5A0631A463B6913603F
:1050A800FB79002B01D000234EE0BB68DB78002B96
:1050B80049D1BB685B69002B45D0BB68DB79032B02
:1050C80030D801A252F823F0E15000080551000839
:1050D800E150000805510008BB685B6903339B0871
:1050E800FB82FA8AFB68DB6A9BB29A421CD9FB688E
:1050F8009B6943F02002FB689A6115E0BB685B6915
:1051080003339B08FB82FA8A3B6A03F580631B69B9
:105118009BB29A420AD9FB689B6943F08062FB689C
:105128009A6103E000BF02E000BF00E000BFBB6877
:10513800D968BB685A78BB685B699BB2002000904D
:10514800F868FFF731FB002318462837BD4680BDB5
:105158000000F81F80B485B000AF78607B68FB6002
:10516800FB6803F580635B699BB218461437BD463C
:105178005DF8047B704780B489B000AF78600B4657
:10518800FB707B68FB61FB78BB610023FB60BB693C
:105198005A01FB69134403F5A0631B689B0C03F0D9
:1051A80003037B61BB695A01FB69134403F5A063E0
:1051B8001B68DB0F03F001033B617B689B6803F00E
:1051C8002003202B04D13B69002B01D10023C8E028
:1051D8007B69002B02D07B69022B63D1BB695A0122
:1051E800FB69134403F5A0631B68BA695101FA69A6
:1051F8000A4402F5A06243F0804313607B689B6811
:1052080003F02003002B40F0AB807B68DB6A03F4DB
:105218007F03002B33D1BB695A01FB69134403F5A3
:10522800A0631B68BA695101FA690A4402F5A062D1
:1052380023F000431360BB695A01FB69134403F56B
:10524800A0631B68BA695101FA690A4402F5A062B1
:1052580043F000431360FB680133FB60FB68B3F560
:105268007A7F1DD8BB695A01FB69134403F5A06313
:105278001B6803F00043B3F1004FECD070E0BB694A
:105288005A01FB69134403F5A0631B68BA6951010D
:10529800FA690A4402F5A06243F0004313605FE034
:1052A80000BF5DE0BB695A01FB69134403F5A063C5
:1052B8001B68BA695101FA690A4402F5A06243F011
:1052C80080431360FB6903F580631B6903F47F0364
:1052D800002B33D1BB695A01FB69134403F5A06362
:1052E8001B68BA695101FA690A4402F5A06223F001
:1052F80000431360BB695A01FB69134403F5A063BB
:105308001B68BA695101FA690A4402F5A06243F0C0
:1053180000431360FB680133FB60FB68B3F57A7FD9
:105328001DD8BB695A01FB69134403F5A0631B68C8
:1053380003F00043B3F1004FECD011E0BB695A0110
:10534800FB69134403F5A0631B68BA695101FA6944
:105358000A4402F5A06243F00043136000E000BF76
:10536800002318462437BD465DF8047B70470000CB
:1053780080B487B000AF78600B46FB707B687B61B8
:10538800FB783B610123FB60FB68DA04154B134093
:105398003A6951017A690A4402F5A06243F0004370
:1053A80013613B695A017B69134403F5A0631B68C9
:1053B800BB60BB6823F08043BB60BB6843F000431D
:1053C800BB603B695A017B69134403F5A0631A4625
:1053D800BB681360002318461C37BD465DF8047B84
:1053E800704700BF0000F81F80B588B000AF786034
:1053F8000023FB777B687B610023FB607868FFF7FD
:1054080012F910217868FFF76BF90346002B01D0D9
:105418000123FB777868FFF797F90346002B01D043
:105428000123FB770023BB611FE0BB695A017B693D
:10543800134403F5A0631B683B613B6943F0804359
:105448003B613B6923F000433B613B6923F4004324
:105458003B61BB695A017B69134403F5A0631A4693
:105468003B691360BB690133BB61BB690F2BDCD996
:105478000023BB6134E0BB695A017B69134403F51F
:10548800A0631B683B613B6943F080433B613B6918
:1054980043F000433B613B6923F400433B61BB6934
:1054A8005A017B69134403F5A0631A463B691360EC
:1054B800FB680133FB60FB68B3F57A7F0CD8BB69E6
:1054C8005A017B69134403F5A0631B6803F000438A
:1054D800B3F1004FECD000E000BFBB690133BB6102
:1054E800BB690F2BC7D97B6903F580631A464FF058
:1054F800FF3353617B684FF0FF325A617868FFF7DA
:1055080081F8FB7F18462037BD4680BD90B589B02D
:1055180004AF7860012302220221786800F066FC5B
:105528000346FB73FB7BFF2B02D0FB7B012B01D9CE
:1055380002233DE1FB7B1946786800F03BFC0346FB
:10554800BB73BB7B002B01D0022331E17B68D3F80E
:105558007C43502002F0FAFA0346E3617B68D3F8F3
:105568007C33DB69BB60BB68002B01D102231FE1E0
:1055780050220021B86802F0F9FAFB7B7A681A21F8
:1055880001FB03F3134403F24E331B785BB2002B89
:1055980015DAFB7B7A681A2101FB03F3134403F243
:1055A8004E331A78BB685A70FB7B7A681A2101FB64
:1055B80003F3134403F554731A88BB685A81BB6814
:1055C8005B781946786801F02CFF03461A46BB68D9
:1055D8001A70BB681978BB6858787B6893F81C43C5
:1055E8007B6893F81D33BA685289029203220192AC
:1055F800009323460246786801F0E4FEBB681B78F6
:1056080000221946786802F0F3F9002300220A21E3
:10561800786800F0EBFB0346FB73FB7BFF2B02D0A3
:10562800FB7B012B01D90223C2E0FB7B7A681A219C
:1056380001FB03F3134403F24E331B785BB2002BD8
:1056480016DAFB7B7A681A2101FB03F3134403F291
:105658004E331A78BB68DA73FB7B7A681A2101FB30
:1056680003F3134403F554731A88BB685A8315E08F
:10567800FB7B7A681A2101FB03F3134403F24E33D0
:105688001A78BB689A73FB7B7A681A2101FB03F3CB
:10569800134403F554731A88BB681A83FB7B7A6832
:1056A8001A2101FB03F3134403F256331B785BB250
:1056B800002B16DAFB7B7A681A2101FB03F31344EB
:1056C80003F256331A78BB68DA73FB7B7A681A21BF
:1056D80001FB03F3134403F556731A88BB685A8316
:1056E80015E0FB7B7A681A2101FB03F3134403F2EC
:1056F80056331A78BB689A73FB7B7A681A2101FBC8
:1057080003F3134403F556731A88BB681A83BB68FE
:105718009B7B1946786801F084FE03461A46BB68ED
:105728005A73BB68DB7B1946786801F07AFE03463A
:105738001A46BB681A73BB68597BBB68987B7B6841
:1057480093F81C437B6893F81D33BA68128B029256
:1057580002220192009323460246786801F032FE45
:10576800BB68197BBB68D87B7B6893F81C437B6854
:1057780093F81D33BA68528B029202220192009369
:1057880023460246786801F01DFEBB68002283F8B4
:105798004C20BB685B7B00221946786802F028F928
:1057A800BB681B7B00221946786802F021F90023A8
:1057B80018461437BD4690BD80B584B000AF7860F8
:1057C8007B68D3F87C33DB69FB60FB681B78002BB4
:1057D8000ED0FB681B781946786801F012FEFB684A
:1057E8001B781946786801F03DFEFB6800221A70A4
:1057F800FB681B7B002B0ED0FB681B7B1946786867
:1058080001F0FFFDFB681B7B1946786801F02AFE52
:10581800FB6800221A73FB685B7B002B0ED0FB68C9
:105828005B7B1946786801F0ECFDFB685B7B1946E9
:10583800786801F017FEFB6800225A737B68D3F87A
:105848007C33DB69002B0BD07B68D3F87C33DB69B6
:10585800184602F083F97B68D3F87C330022DA61BA
:10586800002318461037BD4680BD80B584B000AF10
:1058780078607B68D3F87C33DB69FB60FB68403376
:105888001946786800F0B1F80346FB72FB7A002BE2
:1058980005D17B68D3F8D433022178689847FB7A1E
:1058A80018461037BD4680BD80B584B000AF78601B
:1058B8000123FB730023BB737B68D3F87C33DB695C
:1058C800BB60BB6893F84C30042B77D801A252F820
:1058D80023F000BFF1580008F758000827590008BE
:1058E8009B590008A95900080023FB736DE0BB68A9
:1058F8009B6C1946786800F097F80346BB73BB7B2E
:10590800002B04D1BB68022283F84C2058E0BB7BF3
:10591800012B55D0BB68042283F84C2050E0BB68AB
:1059280040331946786800F060F80346BB73BB7BC8
:10593800002B26D1BB68002283F84C20BB6893F863
:105948004420BB689B6C1B799A423BD1BB6893F897
:105958004620BB689B6C9B799A4233D1BB6893F80D
:105968004520BB689B6C5B799A422BD1BB681A6C4B
:10597800BB689B6C1B689A4224D1786800F058F980
:1059880020E0BB7B012B1DD0BB68042283F84C2090
:1059980018E0786800F067F8786800F0DAF814E042
:1059A8000021786800F0EFFF0346BB73BB7B002B38
:1059B8000AD1BB68002283F84C2005E000BF04E050
:1059C80000BF02E000BF00E000BFFB7B18461037B5
:1059D800BD4680BD80B483B000AF78600023184610
:1059E8000C37BD465DF8047B704780B582B000AFC8
:1059F800786039607B68A1221A747B6821225A7406
:105A08007B6800225A827B6800229A827B68072280
:105A1800DA823B6807221946786801F081FA034662
:105A280018460837BD4680BD80B582B000AF7860A3
:105A380039607B6821221A747B6820225A747B683B
:105A480000225A827B6800229A827B680722DA82C7
:105A58003B6807221946786801F062FA034618463F
:105A68000837BD4680BD80B586B002AF78607B68D8
:105A7800D3F87C33DB69FB600023FB72FB6893F887
:105A88004D30012B02D0022B23D05EE0FB685B6A0D
:105A9800FA68128B93420BD9FB68D969FB681A8B99
:105AA800FB685B7B01200090786801F048FC0BE004
:105AB800FB68D969FB685B6A9AB2FB685B7B01206B
:105AC8000090786801F03BFCFB68022283F84D20C7
